{
    "contractName": "StickDAO",
    "abi": [
        {
            "inputs": [
                {
                    "internalType": "address[13]",
                    "name": "_contracts",
                    "type": "address[13]"
                }
            ],
            "stateMutability": "nonpayable",
            "type": "constructor"
        },
        {
            "anonymous": false,
            "inputs": [
                {
                    "indexed": true,
                    "internalType": "address",
                    "name": "owner",
                    "type": "address"
                },
                {
                    "indexed": true,
                    "internalType": "address",
                    "name": "spender",
                    "type": "address"
                },
                {
                    "indexed": false,
                    "internalType": "uint256",
                    "name": "value",
                    "type": "uint256"
                }
            ],
            "name": "Approval",
            "type": "event"
        },
        {
            "anonymous": false,
            "inputs": [
                {
                    "indexed": true,
                    "internalType": "address",
                    "name": "from",
                    "type": "address"
                },
                {
                    "indexed": true,
                    "internalType": "address",
                    "name": "to",
                    "type": "address"
                },
                {
                    "indexed": false,
                    "internalType": "uint256",
                    "name": "value",
                    "type": "uint256"
                }
            ],
            "name": "Transfer",
            "type": "event"
        },
        {
            "stateMutability": "payable",
            "type": "fallback"
        },
        {
            "inputs": [
                {
                    "internalType": "address",
                    "name": "_contractAddress",
                    "type": "address"
                },
                {
                    "internalType": "uint256",
                    "name": "_index",
                    "type": "uint256"
                }
            ],
            "name": "DEBUG_setContract",
            "outputs": [],
            "stateMutability": "nonpayable",
            "type": "function"
        },
        {
            "inputs": [
                {
                    "internalType": "address[13]",
                    "name": "_contracts",
                    "type": "address[13]"
                }
            ],
            "name": "DEBUG_setContracts",
            "outputs": [],
            "stateMutability": "nonpayable",
            "type": "function"
        },
        {
            "inputs": [
                {
                    "internalType": "address",
                    "name": "owner",
                    "type": "address"
                },
                {
                    "internalType": "address",
                    "name": "spender",
                    "type": "address"
                }
            ],
            "name": "allowance",
            "outputs": [
                {
                    "internalType": "uint256",
                    "name": "",
                    "type": "uint256"
                }
            ],
            "stateMutability": "view",
            "type": "function"
        },
        {
            "inputs": [
                {
                    "internalType": "address",
                    "name": "spender",
                    "type": "address"
                },
                {
                    "internalType": "uint256",
                    "name": "amount",
                    "type": "uint256"
                }
            ],
            "name": "approve",
            "outputs": [
                {
                    "internalType": "bool",
                    "name": "",
                    "type": "bool"
                }
            ],
            "stateMutability": "nonpayable",
            "type": "function"
        },
        {
            "inputs": [
                {
                    "internalType": "address",
                    "name": "account",
                    "type": "address"
                }
            ],
            "name": "balanceOf",
            "outputs": [
                {
                    "internalType": "uint256",
                    "name": "",
                    "type": "uint256"
                }
            ],
            "stateMutability": "view",
            "type": "function"
        },
        {
            "inputs": [
                {
                    "internalType": "uint256",
                    "name": "_spendingProposalNumber",
                    "type": "uint256"
                },
                {
                    "internalType": "bytes32[]",
                    "name": "_merkleProof",
                    "type": "bytes32[]"
                }
            ],
            "name": "claimCoinSpending",
            "outputs": [],
            "stateMutability": "nonpayable",
            "type": "function"
        },
        {
            "inputs": [
                {
                    "internalType": "uint256",
                    "name": "_spendingProposalNumber",
                    "type": "uint256"
                },
                {
                    "internalType": "bytes32[]",
                    "name": "_merkleProof",
                    "type": "bytes32[]"
                }
            ],
            "name": "claimTokenSpending",
            "outputs": [],
            "stateMutability": "nonpayable",
            "type": "function"
        },
        {
            "inputs": [
                {
                    "internalType": "uint256",
                    "name": "",
                    "type": "uint256"
                }
            ],
            "name": "contracts",
            "outputs": [
                {
                    "internalType": "address",
                    "name": "",
                    "type": "address"
                }
            ],
            "stateMutability": "view",
            "type": "function"
        },
        {
            "inputs": [],
            "name": "decimals",
            "outputs": [
                {
                    "internalType": "uint8",
                    "name": "",
                    "type": "uint8"
                }
            ],
            "stateMutability": "view",
            "type": "function"
        },
        {
            "inputs": [
                {
                    "internalType": "address",
                    "name": "spender",
                    "type": "address"
                },
                {
                    "internalType": "uint256",
                    "name": "subtractedValue",
                    "type": "uint256"
                }
            ],
            "name": "decreaseAllowance",
            "outputs": [
                {
                    "internalType": "bool",
                    "name": "",
                    "type": "bool"
                }
            ],
            "stateMutability": "nonpayable",
            "type": "function"
        },
        {
            "inputs": [
                {
                    "internalType": "uint256",
                    "name": "_proposalID",
                    "type": "uint256"
                }
            ],
            "name": "executeContractAddressUpdateProposal",
            "outputs": [],
            "stateMutability": "nonpayable",
            "type": "function"
        },
        {
            "inputs": [
                {
                    "internalType": "uint256",
                    "name": "_proposalID",
                    "type": "uint256"
                }
            ],
            "name": "executeFunctionsProposalTypesUpdateProposal",
            "outputs": [],
            "stateMutability": "nonpayable",
            "type": "function"
        },
        {
            "inputs": [
                {
                    "internalType": "uint256",
                    "name": "_proposalID",
                    "type": "uint256"
                }
            ],
            "name": "executeMinBalanceToPropUpdateProposal",
            "outputs": [],
            "stateMutability": "nonpayable",
            "type": "function"
        },
        {
            "inputs": [
                {
                    "internalType": "uint256",
                    "name": "_proposalID",
                    "type": "uint256"
                }
            ],
            "name": "executeNewProposalTypeProposal",
            "outputs": [],
            "stateMutability": "nonpayable",
            "type": "function"
        },
        {
            "inputs": [
                {
                    "internalType": "uint256",
                    "name": "_proposalID",
                    "type": "uint256"
                }
            ],
            "name": "executeProposalTypeUpdateProposal",
            "outputs": [],
            "stateMutability": "nonpayable",
            "type": "function"
        },
        {
            "inputs": [],
            "name": "finalizeSpendingProposal",
            "outputs": [],
            "stateMutability": "nonpayable",
            "type": "function"
        },
        {
            "inputs": [
                {
                    "internalType": "uint256",
                    "name": "",
                    "type": "uint256"
                }
            ],
            "name": "functionsProposalTypes",
            "outputs": [
                {
                    "internalType": "uint256",
                    "name": "",
                    "type": "uint256"
                }
            ],
            "stateMutability": "view",
            "type": "function"
        },
        {
            "inputs": [],
            "name": "getContractCoinBalance",
            "outputs": [
                {
                    "internalType": "uint256",
                    "name": "",
                    "type": "uint256"
                }
            ],
            "stateMutability": "view",
            "type": "function"
        },
        {
            "inputs": [
                {
                    "internalType": "address",
                    "name": "_tokenContractAddress",
                    "type": "address"
                }
            ],
            "name": "getContractTokenBalance",
            "outputs": [
                {
                    "internalType": "uint256",
                    "name": "",
                    "type": "uint256"
                }
            ],
            "stateMutability": "view",
            "type": "function"
        },
        {
            "inputs": [],
            "name": "getMinBalanceToPropose",
            "outputs": [
                {
                    "internalType": "uint256",
                    "name": "",
                    "type": "uint256"
                }
            ],
            "stateMutability": "view",
            "type": "function"
        },
        {
            "inputs": [
                {
                    "internalType": "address",
                    "name": "spender",
                    "type": "address"
                },
                {
                    "internalType": "uint256",
                    "name": "addedValue",
                    "type": "uint256"
                }
            ],
            "name": "increaseAllowance",
            "outputs": [
                {
                    "internalType": "bool",
                    "name": "",
                    "type": "bool"
                }
            ],
            "stateMutability": "nonpayable",
            "type": "function"
        },
        {
            "inputs": [
                {
                    "internalType": "uint256",
                    "name": "_proposalID",
                    "type": "uint256"
                }
            ],
            "name": "isProposalPassed",
            "outputs": [
                {
                    "internalType": "bool",
                    "name": "",
                    "type": "bool"
                }
            ],
            "stateMutability": "nonpayable",
            "type": "function"
        },
        {
            "inputs": [
                {
                    "internalType": "uint256",
                    "name": "_proposalID",
                    "type": "uint256"
                },
                {
                    "internalType": "bool",
                    "name": "_isApproving",
                    "type": "bool"
                },
                {
                    "internalType": "uint256",
                    "name": "_lordID",
                    "type": "uint256"
                },
                {
                    "internalType": "uint256",
                    "name": "_lordTotalSupply",
                    "type": "uint256"
                }
            ],
            "name": "lordVote",
            "outputs": [
                {
                    "internalType": "string",
                    "name": "",
                    "type": "string"
                }
            ],
            "stateMutability": "nonpayable",
            "type": "function"
        },
        {
            "inputs": [],
            "name": "minBalanceToPropose",
            "outputs": [
                {
                    "internalType": "uint256",
                    "name": "",
                    "type": "uint256"
                }
            ],
            "stateMutability": "view",
            "type": "function"
        },
        {
            "inputs": [
                {
                    "internalType": "address",
                    "name": "_minter",
                    "type": "address"
                },
                {
                    "internalType": "uint256",
                    "name": "_amount",
                    "type": "uint256"
                }
            ],
            "name": "mintTokens",
            "outputs": [],
            "stateMutability": "nonpayable",
            "type": "function"
        },
        {
            "inputs": [],
            "name": "name",
            "outputs": [
                {
                    "internalType": "string",
                    "name": "",
                    "type": "string"
                }
            ],
            "stateMutability": "view",
            "type": "function"
        },
        {
            "inputs": [
                {
                    "internalType": "string",
                    "name": "_description",
                    "type": "string"
                },
                {
                    "internalType": "uint256",
                    "name": "_proposalType",
                    "type": "uint256"
                }
            ],
            "name": "newProposal",
            "outputs": [
                {
                    "internalType": "uint256",
                    "name": "",
                    "type": "uint256"
                }
            ],
            "stateMutability": "nonpayable",
            "type": "function"
        },
        {
            "inputs": [],
            "name": "proposalCounter",
            "outputs": [
                {
                    "internalType": "uint256",
                    "name": "_value",
                    "type": "uint256"
                }
            ],
            "stateMutability": "view",
            "type": "function"
        },
        {
            "inputs": [
                {
                    "internalType": "uint256",
                    "name": "_proposalID",
                    "type": "uint256"
                }
            ],
            "name": "proposalResult",
            "outputs": [
                {
                    "internalType": "uint256",
                    "name": "",
                    "type": "uint256"
                }
            ],
            "stateMutability": "nonpayable",
            "type": "function"
        },
        {
            "inputs": [
                {
                    "internalType": "uint256",
                    "name": "",
                    "type": "uint256"
                }
            ],
            "name": "proposalTrackers",
            "outputs": [
                {
                    "internalType": "enum StickDAO.Status",
                    "name": "status",
                    "type": "uint8"
                },
                {
                    "internalType": "uint256",
                    "name": "updateCode",
                    "type": "uint256"
                },
                {
                    "internalType": "bool",
                    "name": "isExecuted",
                    "type": "bool"
                },
                {
                    "internalType": "uint256",
                    "name": "index",
                    "type": "uint256"
                },
                {
                    "internalType": "uint256",
                    "name": "newUint",
                    "type": "uint256"
                },
                {
                    "internalType": "address",
                    "name": "newAddress",
                    "type": "address"
                },
                {
                    "internalType": "bytes32",
                    "name": "newBytes32",
                    "type": "bytes32"
                },
                {
                    "internalType": "bool",
                    "name": "newBool",
                    "type": "bool"
                }
            ],
            "stateMutability": "view",
            "type": "function"
        },
        {
            "inputs": [
                {
                    "internalType": "uint256",
                    "name": "",
                    "type": "uint256"
                }
            ],
            "name": "proposalTypeUpdates",
            "outputs": [
                {
                    "internalType": "enum StickDAO.Status",
                    "name": "status",
                    "type": "uint8"
                },
                {
                    "internalType": "bool",
                    "name": "isExecuted",
                    "type": "bool"
                },
                {
                    "internalType": "bool",
                    "name": "isNewType",
                    "type": "bool"
                },
                {
                    "internalType": "uint256",
                    "name": "proposalTypeNumber",
                    "type": "uint256"
                },
                {
                    "internalType": "uint256",
                    "name": "newLength",
                    "type": "uint256"
                },
                {
                    "internalType": "uint256",
                    "name": "newRequiredApprovalRate",
                    "type": "uint256"
                },
                {
                    "internalType": "uint256",
                    "name": "newRequiredTokenAmount",
                    "type": "uint256"
                },
                {
                    "internalType": "uint256",
                    "name": "newRequiredParticipantAmount",
                    "type": "uint256"
                }
            ],
            "stateMutability": "view",
            "type": "function"
        },
        {
            "inputs": [
                {
                    "internalType": "uint256",
                    "name": "",
                    "type": "uint256"
                }
            ],
            "name": "proposalTypes",
            "outputs": [
                {
                    "internalType": "uint256",
                    "name": "length",
                    "type": "uint256"
                },
                {
                    "internalType": "uint256",
                    "name": "requiredApprovalRate",
                    "type": "uint256"
                },
                {
                    "internalType": "uint256",
                    "name": "requiredTokenAmount",
                    "type": "uint256"
                },
                {
                    "internalType": "uint256",
                    "name": "requiredParticipantAmount",
                    "type": "uint256"
                }
            ],
            "stateMutability": "view",
            "type": "function"
        },
        {
            "inputs": [
                {
                    "internalType": "uint256",
                    "name": "",
                    "type": "uint256"
                }
            ],
            "name": "proposals",
            "outputs": [
                {
                    "internalType": "uint256",
                    "name": "id",
                    "type": "uint256"
                },
                {
                    "internalType": "string",
                    "name": "description",
                    "type": "string"
                },
                {
                    "internalType": "uint256",
                    "name": "startTime",
                    "type": "uint256"
                },
                {
                    "internalType": "uint256",
                    "name": "proposalType",
                    "type": "uint256"
                },
                {
                    "internalType": "enum StickDAO.Status",
                    "name": "status",
                    "type": "uint8"
                },
                {
                    "internalType": "uint256",
                    "name": "participants",
                    "type": "uint256"
                },
                {
                    "internalType": "uint256",
                    "name": "totalVotes",
                    "type": "uint256"
                },
                {
                    "internalType": "uint256",
                    "name": "yayCount",
                    "type": "uint256"
                },
                {
                    "internalType": "uint256",
                    "name": "nayCount",
                    "type": "uint256"
                }
            ],
            "stateMutability": "view",
            "type": "function"
        },
        {
            "inputs": [
                {
                    "internalType": "uint256",
                    "name": "_contractIndex",
                    "type": "uint256"
                },
                {
                    "internalType": "address",
                    "name": "_newAddress",
                    "type": "address"
                }
            ],
            "name": "proposeContractAddressUpdate",
            "outputs": [],
            "stateMutability": "nonpayable",
            "type": "function"
        },
        {
            "inputs": [
                {
                    "internalType": "uint256",
                    "name": "_functionIndex",
                    "type": "uint256"
                },
                {
                    "internalType": "uint256",
                    "name": "_newIndex",
                    "type": "uint256"
                }
            ],
            "name": "proposeFunctionsProposalTypesUpdate",
            "outputs": [],
            "stateMutability": "nonpayable",
            "type": "function"
        },
        {
            "inputs": [
                {
                    "internalType": "uint256",
                    "name": "_newAmount",
                    "type": "uint256"
                }
            ],
            "name": "proposeMinBalanceToPropUpdate",
            "outputs": [],
            "stateMutability": "nonpayable",
            "type": "function"
        },
        {
            "inputs": [
                {
                    "internalType": "bytes32[]",
                    "name": "_merkleRoots",
                    "type": "bytes32[]"
                },
                {
                    "internalType": "uint256[]",
                    "name": "_allowances",
                    "type": "uint256[]"
                },
                {
                    "internalType": "uint256",
                    "name": "_totalSpending",
                    "type": "uint256"
                }
            ],
            "name": "proposeNewCoinSpending",
            "outputs": [],
            "stateMutability": "nonpayable",
            "type": "function"
        },
        {
            "inputs": [
                {
                    "internalType": "uint256",
                    "name": "_length",
                    "type": "uint256"
                },
                {
                    "internalType": "uint256",
                    "name": "_requiredApprovalRate",
                    "type": "uint256"
                },
                {
                    "internalType": "uint256",
                    "name": "_requiredTokenAmount",
                    "type": "uint256"
                },
                {
                    "internalType": "uint256",
                    "name": "_requiredParticipantAmount",
                    "type": "uint256"
                }
            ],
            "name": "proposeNewProposalType",
            "outputs": [],
            "stateMutability": "nonpayable",
            "type": "function"
        },
        {
            "inputs": [
                {
                    "internalType": "address",
                    "name": "_tokenContractAddress",
                    "type": "address"
                },
                {
                    "internalType": "bytes32[]",
                    "name": "_merkleRoots",
                    "type": "bytes32[]"
                },
                {
                    "internalType": "uint256[]",
                    "name": "_allowances",
                    "type": "uint256[]"
                },
                {
                    "internalType": "uint256",
                    "name": "_totalSpending",
                    "type": "uint256"
                }
            ],
            "name": "proposeNewTokenSpending",
            "outputs": [],
            "stateMutability": "nonpayable",
            "type": "function"
        },
        {
            "inputs": [
                {
                    "internalType": "uint256",
                    "name": "_proposalTypeNumber",
                    "type": "uint256"
                },
                {
                    "internalType": "uint256",
                    "name": "_newLength",
                    "type": "uint256"
                },
                {
                    "internalType": "uint256",
                    "name": "_newRequiredApprovalRate",
                    "type": "uint256"
                },
                {
                    "internalType": "uint256",
                    "name": "_newRequiredTokenAmount",
                    "type": "uint256"
                },
                {
                    "internalType": "uint256",
                    "name": "_newRequiredParticipantAmount",
                    "type": "uint256"
                }
            ],
            "name": "proposeProposalTypeUpdate",
            "outputs": [],
            "stateMutability": "nonpayable",
            "type": "function"
        },
        {
            "inputs": [
                {
                    "internalType": "uint256",
                    "name": "_spendingProposalNumber",
                    "type": "uint256"
                }
            ],
            "name": "returnAllowances",
            "outputs": [
                {
                    "internalType": "uint256[]",
                    "name": "",
                    "type": "uint256[]"
                }
            ],
            "stateMutability": "view",
            "type": "function"
        },
        {
            "inputs": [
                {
                    "internalType": "uint256",
                    "name": "_spendingProposalNumber",
                    "type": "uint256"
                }
            ],
            "name": "returnMerkleRoots",
            "outputs": [
                {
                    "internalType": "bytes32[]",
                    "name": "",
                    "type": "bytes32[]"
                }
            ],
            "stateMutability": "view",
            "type": "function"
        },
        {
            "inputs": [],
            "name": "spendingProposalCounter",
            "outputs": [
                {
                    "internalType": "uint256",
                    "name": "_value",
                    "type": "uint256"
                }
            ],
            "stateMutability": "view",
            "type": "function"
        },
        {
            "inputs": [
                {
                    "internalType": "uint256",
                    "name": "",
                    "type": "uint256"
                }
            ],
            "name": "spendingProposals",
            "outputs": [
                {
                    "internalType": "enum StickDAO.Status",
                    "name": "status",
                    "type": "uint8"
                },
                {
                    "internalType": "uint256",
                    "name": "proposalID",
                    "type": "uint256"
                },
                {
                    "internalType": "uint256",
                    "name": "amount",
                    "type": "uint256"
                },
                {
                    "internalType": "address",
                    "name": "tokenAddress",
                    "type": "address"
                },
                {
                    "internalType": "uint256",
                    "name": "totalClaimedAmount",
                    "type": "uint256"
                }
            ],
            "stateMutability": "view",
            "type": "function"
        },
        {
            "inputs": [],
            "name": "symbol",
            "outputs": [
                {
                    "internalType": "string",
                    "name": "",
                    "type": "string"
                }
            ],
            "stateMutability": "view",
            "type": "function"
        },
        {
            "inputs": [],
            "name": "totalSupply",
            "outputs": [
                {
                    "internalType": "uint256",
                    "name": "",
                    "type": "uint256"
                }
            ],
            "stateMutability": "view",
            "type": "function"
        },
        {
            "inputs": [
                {
                    "internalType": "address",
                    "name": "to",
                    "type": "address"
                },
                {
                    "internalType": "uint256",
                    "name": "amount",
                    "type": "uint256"
                }
            ],
            "name": "transfer",
            "outputs": [
                {
                    "internalType": "bool",
                    "name": "",
                    "type": "bool"
                }
            ],
            "stateMutability": "nonpayable",
            "type": "function"
        },
        {
            "inputs": [
                {
                    "internalType": "address",
                    "name": "from",
                    "type": "address"
                },
                {
                    "internalType": "address",
                    "name": "to",
                    "type": "address"
                },
                {
                    "internalType": "uint256",
                    "name": "amount",
                    "type": "uint256"
                }
            ],
            "name": "transferFrom",
            "outputs": [
                {
                    "internalType": "bool",
                    "name": "",
                    "type": "bool"
                }
            ],
            "stateMutability": "nonpayable",
            "type": "function"
        },
        {
            "inputs": [
                {
                    "internalType": "uint256",
                    "name": "_proposalAmount",
                    "type": "uint256"
                }
            ],
            "name": "viewLastProposalsBasics",
            "outputs": [
                {
                    "internalType": "uint256[]",
                    "name": "",
                    "type": "uint256[]"
                },
                {
                    "internalType": "string[]",
                    "name": "",
                    "type": "string[]"
                },
                {
                    "internalType": "uint256[]",
                    "name": "",
                    "type": "uint256[]"
                },
                {
                    "internalType": "uint256[]",
                    "name": "",
                    "type": "uint256[]"
                },
                {
                    "internalType": "uint256[]",
                    "name": "",
                    "type": "uint256[]"
                }
            ],
            "stateMutability": "view",
            "type": "function"
        },
        {
            "inputs": [
                {
                    "internalType": "uint256",
                    "name": "_proposalAmount",
                    "type": "uint256"
                }
            ],
            "name": "viewLastProposalsNumbers",
            "outputs": [
                {
                    "internalType": "uint256[]",
                    "name": "",
                    "type": "uint256[]"
                },
                {
                    "internalType": "uint256[]",
                    "name": "",
                    "type": "uint256[]"
                },
                {
                    "internalType": "uint256[]",
                    "name": "",
                    "type": "uint256[]"
                }
            ],
            "stateMutability": "view",
            "type": "function"
        },
        {
            "inputs": [
                {
                    "internalType": "uint256",
                    "name": "_proposalID",
                    "type": "uint256"
                },
                {
                    "internalType": "bool",
                    "name": "_isApproving",
                    "type": "bool"
                }
            ],
            "name": "vote",
            "outputs": [],
            "stateMutability": "nonpayable",
            "type": "function"
        },
        {
            "stateMutability": "payable",
            "type": "receive"
        }
    ],
    "bytecode": "60806040523480156200001157600080fd5b5060405162005556380380620055568339810160408190526200003491620005ab565b60405180604001604052806008815260200167537469636b44414f60c01b815250604051806040016040528060048152602001635344414f60e01b8152508160039081620000839190620006d6565b506004620000928282620006d6565b505050620000b9620000a96200045260201b60201c565b68056bc75e2d6310000062000456565b6200042060206040518060800160405280603c815260200160018152602001600181526020016001815250908060018154018082558091505060019003906000526020600020906004020160009091909190915060008201518160000155602082015181600101556040820151816002015560608201518160030155505060206040518060800160405280610e108152602001605a81526020016107d08152602001606481525090806001815401808255809150506001900390600052602060002090600402016000909190919091506000820151816000015560208201518160010155604082015181600201556060820151816003015550506020604051806080016040528062015180815260200160508152602001610bb8815260200160968152509080600181540180825580915050600190039060005260206000209060040201600090919091909150600082015181600001556020820151816001015560408201518160020155606082015181600301555050602060405180608001604052806203f4808152602001604681526020016103e881526020016032815250908060018154018082558091505060019003906000526020600020906004020160009091909190915060008201518160000155602082015181600101556040820151816002015560608201518160030155505060206040518060800160405280603c8152602001604b815260200160018152602001600181525090806001815401808255809150506001900390600052602060002090600402016000909190919091506000820151816000015560208201518160010155604082015181600201556060820151816003015550506020604051806080016040528060148152602001604b81526020016001815260200160018152509080600181540180825580915050600190039060005260206000209060040201600090919091909150600082015181600001556020820151816001015560408201518160020155606082015181600301555050602060405180608001604052806203f4808152602001604681526020016103e8815260200160328152509080600181540180825580915050600190039060005260206000209060040201600090919091909150600082015181600001556020820151816001015560408201518160020155606082015181600301555050565b68056bc75e2d631000006021556200043b600d828162000521565b506200044b601a80546001019055565b50620007ca565b3390565b6001600160a01b038216620004b15760405162461bcd60e51b815260206004820152601f60248201527f45524332303a206d696e7420746f20746865207a65726f206164647265737300604482015260640160405180910390fd5b8060026000828254620004c59190620007a2565b90915550506001600160a01b038216600081815260208181526040808320805486019055518481527fddf252ad1be2c89b69c2b068fc378daa952ba7f163c4a11628f55a4df523b3ef910160405180910390a35050565b505050565b82600d81019282156200056c579160200282015b828111156200056c57825182546001600160a01b0319166001600160a01b0390911617825560209092019160019091019062000535565b506200057a9291506200057e565b5090565b5b808211156200057a57600081556001016200057f565b634e487b7160e01b600052604160045260246000fd5b60006101a0808385031215620005c057600080fd5b83601f840112620005d057600080fd5b6040518181016001600160401b0381118282101715620005f457620005f462000595565b6040529083019080858311156200060a57600080fd5b845b838110156200063d5780516001600160a01b03811681146200062e5760008081fd5b8252602091820191016200060c565b509095945050505050565b600181811c908216806200065d57607f821691505b6020821081036200067e57634e487b7160e01b600052602260045260246000fd5b50919050565b601f8211156200051c57600081815260208120601f850160051c81016020861015620006ad5750805b601f850160051c820191505b81811015620006ce57828155600101620006b9565b505050505050565b81516001600160401b03811115620006f257620006f262000595565b6200070a8162000703845462000648565b8462000684565b602080601f831160018114620007425760008415620007295750858301515b600019600386901b1c1916600185901b178555620006ce565b600085815260208120601f198616915b82811015620007735788860151825594840194600190910190840162000752565b5085821015620007925787850151600019600388901b60f8161c191681555b5050505050600190811b01905550565b80820180821115620007c457634e487b7160e01b600052601160045260246000fd5b92915050565b614d7c80620007da6000396000f3fe6080604052600436106102c75760003560e01c806370a082311161017e578063c2813bc0116100d3578063e69a05041161008f578063efd2aeeb1161006c578063efd2aeeb146109bf578063f0dda65c146109df578063f9b29c12146109ff578063ff2c50a014610a1f57005b8063e69a050414610941578063ecae2b3514610961578063ed6a48f31461099257005b8063c2813bc014610877578063c9d27afe146108a6578063d1088a76146108c6578063d85f181f146108e6578063dd62ed3e14610906578063dd83e2171461092157005b8063a3419d041161013a578063a9059cbb11610117578063a9059cbb14610355578063ae30a3021461075d578063b452df95146107e0578063bf3c6bbe1461085757005b8063a3419d04146106fd578063a457c2d714610355578063a6fb56ac1461071d57005b806370a08231146105ea5780637506a78f14610620578063763b6d4c146106885780638a037bb2146106a857806393d32b40146106c857806395d89b41146106e857005b806329769dfa11610234578063474da79a116101f05780635b00d95d116101cd5780635b00d95d1461056a57806361e236411461057d5780636a6d75ca146105aa5780636cd4f6da146105ca57005b8063474da79a146104f25780634bf8a5d01461052a57806350296e021461054a57005b806329769dfa146104615780632c5950f914610481578063313ce567146104a157806331d9984e146104bd5780633950935114610355578063466cfc66146104d257005b806314205e281161028357806314205e28146103bc57806318160ddd146103dc57806319f8edf2146103f15780631dd28c551461041157806323b872dd14610431578063245da66b1461044c57005b8063013cf08b146102d057806306fdde031461030e57806307b12f5a14610330578063095ea7b3146103555780630c0512e9146103855780631022b30b1461039c57005b366102ce57005b005b3480156102dc57600080fd5b506102f06102eb3660046139a9565b610a35565b60405161030599989796959493929190613a4a565b60405180910390f35b34801561031a57600080fd5b50610323610b0a565b6040516103059190613aa7565b34801561033c57600080fd5b50601b546103479081565b604051908152602001610305565b34801561036157600080fd5b50610375610370366004613ad6565b610b9c565b6040519015158152602001610305565b34801561039157600080fd5b50601a546103479081565b3480156103a857600080fd5b506103476103b73660046139a9565b610bf6565b3480156103c857600080fd5b506103476103d7366004613b00565b610c65565b3480156103e857600080fd5b50600254610347565b3480156103fd57600080fd5b506102ce61040c366004613b1b565b610cd6565b34801561041d57600080fd5b5061034761042c366004613b93565b610da2565b34801561043d57600080fd5b50610375610370366004613c2c565b34801561045857600080fd5b506102ce610f36565b34801561046d57600080fd5b506102ce61047c366004613ce7565b6110c2565b34801561048d57600080fd5b506102ce61049c366004613d53565b611256565b3480156104ad57600080fd5b5060405160128152602001610305565b3480156104c957600080fd5b50602154610347565b3480156104de57600080fd5b506102ce6104ed3660046139a9565b611482565b3480156104fe57600080fd5b5061051261050d3660046139a9565b611582565b6040516001600160a01b039091168152602001610305565b34801561053657600080fd5b506102ce6105453660046139a9565b6115a2565b34801561055657600080fd5b506103476105653660046139a9565b61163d565b34801561057657600080fd5b5047610347565b34801561058957600080fd5b5061059d6105983660046139a9565b611654565b6040516103059190613dce565b3480156105b657600080fd5b506102ce6105c5366004613ad6565b6116b9565b3480156105d657600080fd5b506103756105e53660046139a9565b6116f0565b3480156105f657600080fd5b50610347610605366004613b00565b6001600160a01b031660009081526020819052604090205490565b34801561062c57600080fd5b5061067761063b3660046139a9565b601e602052600090815260409020805460018201546002830154600384015460079094015460ff90931693919290916001600160a01b03169085565b604051610305959493929190613e12565b34801561069457600080fd5b506102ce6106a33660046139a9565b611762565b3480156106b457600080fd5b506102ce6106c3366004613e4c565b61184b565b3480156106d457600080fd5b506102ce6106e3366004613e4c565b6119c5565b3480156106f457600080fd5b50610323611b9e565b34801561070957600080fd5b506102ce610718366004613eca565b611bad565b34801561072957600080fd5b5061073d6107383660046139a9565b611cdd565b604080519485526020850193909352918301526060820152608001610305565b34801561076957600080fd5b506107cc6107783660046139a9565b601d602052600090815260409020805460018201546002830154600384015460048501546005860154600687015460079097015460ff96871697959694851695939492936001600160a01b03909216921688565b604051610305989796959493929190613eec565b3480156107ec57600080fd5b506108436107fb3660046139a9565b601f6020526000908152604090208054600182015460028301546003840154600485015460059095015460ff8086169661010087048216966201000090049091169493929188565b604051610305989796959493929190613f3b565b34801561086357600080fd5b506102ce610872366004613f7f565b611d17565b34801561088357600080fd5b506108976108923660046139a9565b611e95565b60405161030593929190613fe6565b3480156108b257600080fd5b506102ce6108c136600461403a565b612045565b3480156108d257600080fd5b506102ce6108e13660046139a9565b61228e565b3480156108f257600080fd5b506102ce6109013660046139a9565b612456565b34801561091257600080fd5b5061034761037036600461406a565b34801561092d57600080fd5b506102ce61093c366004614094565b61258d565b34801561094d57600080fd5b506102ce61095c36600461410e565b612599565b34801561096d57600080fd5b5061098161097c3660046139a9565b612767565b604051610305959493929190614149565b34801561099e57600080fd5b506109b26109ad3660046139a9565b612af8565b60405161030591906141f8565b3480156109cb57600080fd5b506103236109da36600461420b565b612b5b565b3480156109eb57600080fd5b506102ce6109fa366004613ad6565b612dd4565b348015610a0b57600080fd5b506102ce610a1a3660046139a9565b612e9b565b348015610a2b57600080fd5b5061034760215481565b601c6020526000908152604090208054600182018054919291610a5790614248565b80601f0160208091040260200160405190810160405280929190818152602001828054610a8390614248565b8015610ad05780601f10610aa557610100808354040283529160200191610ad0565b820191906000526020600020905b815481529060010190602001808311610ab357829003601f168201915b505050506002830154600384015460048501546005860154600687015460078801546008909801549697949693955060ff90921693909289565b606060038054610b1990614248565b80601f0160208091040260200160405190810160405280929190818152602001828054610b4590614248565b8015610b925780601f10610b6757610100808354040283529160200191610b92565b820191906000526020600020905b815481529060010190602001808311610b7557829003601f168201915b5050505050905090565b60405162461bcd60e51b815260206004820152602160248201527f546869732069732061206e6f6e2d7472616e7366657261626c6520746f6b656e6044820152602160f81b60648201526000906084015b60405180910390fd5b6000818152601c60205260408120610c0d81612fc2565b6001600482015460ff166003811115610c2857610c28613a12565b11610c455760405162461bcd60e51b8152600401610bed90614282565b600481015460ff166003811115610c5e57610c5e613a12565b9392505050565b6040516370a0823160e01b81523060048201526000906001600160a01b038316906370a0823190602401602060405180830381865afa158015610cac573d6000803e3d6000fd5b505050506040513d601f19601f82011682018060405250810190610cd091906142d6565b92915050565b6012546001600160a01b0316336001600160a01b031614610d095760405162461bcd60e51b8152600401610bed90614305565b6000610d14856131e0565b610d1d856131e0565b610d26856131e0565b610d2f856131e0565b604051602001610d429493929190614367565b60408051601f1981840301815291905290506000610d6682600560075b0154610da2565b6000908152601f60205260409020805462ff00001916620100001781556002810196909655505060038401929092556004830155600590910155565b60008060005b600d811015610df057600d81600d8110610dc457610dc46142ef565b01546001600160a01b03163303610dde5760019150610df0565b80610de8816144ce565b915050610da8565b508080610e075750602154610e0433610605565b10155b610e795760405162461bcd60e51b815260206004820152603a60248201527f596f7520646f6e2774206861766520656e6f75676820766f74696e6720706f7760448201527f657220746f2070726f706f73652c20736f7272792064756465210000000000006064820152608401610bed565b6020548310610eca5760405162461bcd60e51b815260206004820152601f60248201527f496e76616c69642070726f706f73616c207479706520796f7520666f6f6c21006044820152606401610bed565b6000601c6000610ed9601a5490565b81526020019081526020016000209050610ef2601a5490565b8155610f02601a80546001019055565b60018101610f108682614535565b504260028201556003810193909355505060048101805460ff1916600117905554919050565b6000601e6000610f45601b5490565b8152602081019190915260400160002090506001815460ff166003811115610f6f57610f6f613a12565b14610fe25760405162461bcd60e51b815260206004820152603e60248201527f447564652c207468657265206973206e6f206d6f6e65746172792070726f706f60448201527f73616c20746f2066696e616c697a65212041726520796f75206f6b61793f00006064820152608401610bed565b60018101546000908152601c60205260409020610ffe81612fc2565b600481015460019060ff16600381111561101a5761101a613a12565b116110845760405162461bcd60e51b815260206004820152603460248201527f5468652070726f706f73616c206973207374696c6c20676f696e67206f6e2062604482015273726f2120436f6d65206261636b206c617465722160601b6064820152608401610bed565b6004810154825460ff90911690839060ff191660018360038111156110ab576110ab613a12565b02179055506110be601b80546001019055565b5050565b6012546001600160a01b0316336001600160a01b0316146110f55760405162461bcd60e51b8152600401610bed90614305565b804710156111155760405162461bcd60e51b8152600401610bed906145f4565b6000601e6000611124601b5490565b8152602081019190915260400160009081209150815460ff16600381111561114e5761114e613a12565b146111cf5760405162461bcd60e51b8152602060048201526044602482018190527f5468652063757272656e74206d6f6e65746172792070726f706f73616c206973908201527f206e6f742066696e616c697a65642062726f2120436f6d65206261636b206c616064820152633a32b91760e11b608482015260a401610bed565b805460ff191660011781556002810182905583516111f69060048301906020870190613901565b50825161120c9060058301906020860190613901565b506000611218836131e0565b6040516020016112289190614647565b60408051601f1981840301815291905290506112478160056001610d5f565b82600101819055505050505050565b6012546001600160a01b0316336001600160a01b0316146112895760405162461bcd60e51b8152600401610bed90614305565b6000601e6000611298601b5490565b8152602081019190915260400160009081209150815460ff1660038111156112c2576112c2613a12565b146113435760405162461bcd60e51b8152602060048201526044602482018190527f5468652063757272656e74206d6f6e65746172792070726f706f73616c206973908201527f206e6f742066696e616c697a65642062726f2120436f6d65206261636b206c616064820152637465722160e01b608482015260a401610bed565b6040516370a0823160e01b81523060048201526000906001600160a01b038716906370a0823190602401602060405180830381865afa15801561138a573d6000803e3d6000fd5b505050506040513d601f19601f820116820180604052508101906113ae91906142d6565b9050828110156113d05760405162461bcd60e51b8152600401610bed906145f4565b815460ff19166001178255600282018390556003820180546001600160a01b0388166001600160a01b031990911617905584516114169060048401906020880190613901565b50835161142c9060058401906020870190613901565b506000611438846131e0565b61144188613272565b60405160200161145292919061468b565b60408051601f1981840301815291905290506114718160056000610d5f565b836001018190555050505050505050565b6000818152601d60205260409020600181015460021480156114a95750600281015460ff16155b6114c55760405162461bcd60e51b8152600401610bed9061470b565b6114ce82610bf6565b60038111156114df576114df613a12565b8154829060ff191660018360038111156114fb576114fb613a12565b02179055506001815460ff16600381111561151857611518613a12565b116115355760405162461bcd60e51b8152600401610bed90614736565b6002815460ff16600381111561154d5761154d613a12565b03611571578060040154600582600301546008811061156e5761156e6142ef565b01555b600201805460ff1916600117905550565b600d81600d811061159257600080fd5b01546001600160a01b0316905081565b6012546001600160a01b0316336001600160a01b0316146115d55760405162461bcd60e51b8152600401610bed90614305565b60006115e082613288565b6115eb602154613288565b6040516020016115fc929190614786565b60408051601f198184030181529190529050600061161d8260056004610d5f565b6000908152601d6020526040902060036001820155600401929092555050565b6005816008811061164d57600080fd5b0154905081565b6000818152601e60209081526040918290206004018054835181840281018401909452808452606093928301828280156116ad57602002820191906000526020600020905b815481526020019060010190808311611699575b50505050509050919050565b81600d82600d81106116cd576116cd6142ef565b0180546001600160a01b0319166001600160a01b03929092169190911790555050565b6000818152601c6020526040812061170781612fc2565b6001600482015460ff16600381111561172257611722613a12565b1161173f5760405162461bcd60e51b8152600401610bed90614282565b6002600482015460ff16600381111561175a5761175a613a12565b149392505050565b6000818152601d60205260409020600181015460031480156117895750600281015460ff16155b6117a55760405162461bcd60e51b8152600401610bed9061470b565b6117ae82610bf6565b60038111156117bf576117bf613a12565b8154829060ff191660018360038111156117db576117db613a12565b02179055506001815460ff1660038111156117f8576117f8613a12565b116118155760405162461bcd60e51b8152600401610bed90614736565b6002815460ff16600381111561182d5761182d613a12565b03611571576004810154602155600201805460ff1916600117905550565b6000838152601e602052604090206002815460ff16600381111561187157611871613a12565b1461188e5760405162461bcd60e51b8152600401610bed90614824565b600061189b82858561329f565b9050600081116118bd5760405162461bcd60e51b8152600401610bed9061489e565b600282015460078301546118d190836148e7565b111561191f5760405162461bcd60e51b815260206004820152601e60248201527f54686520617070726f76656420616d6f756e7420657863656564696e672100006044820152606401610bed565b60038201546001600160a01b031663a9059cbb336040516001600160e01b031960e084901b1681526001600160a01b039091166004820152602481018490526044016020604051808303816000875af1158015611980573d6000803e3d6000fd5b505050506040513d601f19601f820116820180604052508101906119a491906148fa565b50808260070160008282546119b991906148e7565b90915550505050505050565b6000838152601e602052604090206002815460ff1660038111156119eb576119eb613a12565b14611a085760405162461bcd60e51b8152600401610bed90614824565b6000611a1582858561329f565b905060008111611a375760405162461bcd60e51b8152600401610bed9061489e565b60028201546007830154611a4b90836148e7565b1115611a995760405162461bcd60e51b815260206004820152601e60248201527f54686520617070726f76656420616d6f756e7420657863656564696e672100006044820152606401610bed565b604051600090339083908381818185875af1925050503d8060008114611adb576040519150601f19603f3d011682016040523d82523d6000602084013e611ae0565b606091505b5050905080611b7d5760405162461bcd60e51b815260206004820152606060248201527f5472616e73616374696f6e206f662073656e64696e6720636f696e732066616960448201527f6c656421204920646f6e6e6f2077687921204d617962652070726f626c656d2060648201527f6f6e20746865206e6574776f726b3f20547279206974206c61746572206f6e21608482015260a401610bed565b81836007016000828254611b9191906148e7565b9091555050505050505050565b606060048054610b1990614248565b6012546001600160a01b0316336001600160a01b031614611be05760405162461bcd60e51b8152600401610bed90614305565b60058260088110611bf357611bf36142ef565b01548103611c525760405162461bcd60e51b815260206004820152602660248201527f446573697265642066756e6374696f6e20696e64657820697320616c7265616460448201526579207365742160d01b6064820152608401610bed565b6000611c5d83613288565b611c6683613288565b611c8360058660088110611c7c57611c7c6142ef565b0154613288565b604051602001611c9593929190614917565b60408051601f1981840301815291905290506000611cb68260056003610d5f565b6000908152601d602052604090206002600182015560038101949094555050600490910155565b60208181548110611ced57600080fd5b60009182526020909120600490910201805460018201546002830154600390930154919350919084565b6012546001600160a01b0316336001600160a01b031614611d4a5760405162461bcd60e51b8152600401610bed90614305565b6001600160a01b038116151580611d815750600d82600d8110611d6f57611d6f6142ef565b01546001600160a01b03828116911614155b611de65760405162461bcd60e51b815260206004820152603060248201527f4e657720616464726573732063616e206e6f7420626520746865206e756c6c2060448201526f6f722073616d6520616464726573732160801b6064820152608401610bed565b6000611df183613288565b611dfa83613272565b611e20600d86600d8110611e1057611e106142ef565b01546001600160a01b0316613272565b604051602001611e32939291906149db565b60408051601f1981840301815291905290506000611e538260056002610d5f565b6000908152601d6020526040902060018082015560038101949094555050600590910180546001600160a01b0319166001600160a01b03909216919091179055565b6060806060600080611ea68661343f565b919750925090506000866001600160401b03811115611ec757611ec7613b4d565b604051908082528060200260200182016040528015611ef0578160200160208202803683370190505b5090506000876001600160401b03811115611f0d57611f0d613b4d565b604051908082528060200260200182016040528015611f36578160200160208202803683370190505b5090506000886001600160401b03811115611f5357611f53613b4d565b604051908082528060200260200182016040528015611f7c578160200160208202803683370190505b509050845b848111612035576000818152601c60205260409020600501548451859083908110611fae57611fae6142ef565b602002602001018181525050601c600082815260200190815260200160002060060154838281518110611fe357611fe36142ef565b602002602001018181525050601c600082815260200190815260200160002060070154828281518110612018576120186142ef565b60209081029190910101528061202d816144ce565b915050611f81565b5091989097509095509350505050565b670de0b6b3a764000061205733610605565b10156120bd5760405162461bcd60e51b815260206004820152602f60248201527f596f7520646f6e2774206861766520656e6f75676820766f74696e6720706f7760448201526e65722c20736f72727920647564652160881b6064820152608401610bed565b6000828152601c602052604090206120d481612fc2565b6001600482015460ff1660038111156120ef576120ef613a12565b146121625760405162461bcd60e51b815260206004820152603960248201527f5468652070726f706f73616c2068617320656e646564206d7920667269656e6460448201527f2e204d6179626520616e6f746865722070726f706f73616c3f000000000000006064820152608401610bed565b33600090815260098201602052604090205460ff16156121dd5760405162461bcd60e51b815260206004820152603060248201527f596f75206861766520616c726561647920766f7465642064756465212057687960448201526f20746f6f20616767726573736976653f60801b6064820152608401610bed565b3360008181526009830160205260408120805460ff1916600117905590670de0b6b3a76400009061220d90610605565b6122179190614a9f565b9050821561223e578082600701600082825461223391906148e7565b909155506122589050565b8082600801600082825461225291906148e7565b90915550505b60058201805490600061226a836144ce565b91905055508082600601600082825461228391906148e7565b909155505050505050565b6000818152601f602052604090208054610100900460ff161580156122ba5750805462010000900460ff165b6122d65760405162461bcd60e51b8152600401610bed9061470b565b6122df82610bf6565b60038111156122f0576122f0613a12565b8154829060ff1916600183600381111561230c5761230c613a12565b0217905550805460019060ff16600381111561232a5761232a613a12565b116123475760405162461bcd60e51b8152600401610bed90614736565b6002815460ff16600381111561235f5761235f613a12565b03612446576040805160808101825260028301548152600383015460208281019182526004808601549484019485526005860154606085019081528254600181018455600093909352935191027fc97bfaf2f8ee708c303a06d134f5ecd8389ae0432af62dc132a24118292866bb81019190915590517fc97bfaf2f8ee708c303a06d134f5ecd8389ae0432af62dc132a24118292866bc82015591517fc97bfaf2f8ee708c303a06d134f5ecd8389ae0432af62dc132a24118292866bd830155517fc97bfaf2f8ee708c303a06d134f5ecd8389ae0432af62dc132a24118292866be909101555b805461ff00191661010017905550565b6000818152601f602052604090208054610100900460ff161580156124835750805462010000900460ff16155b61249f5760405162461bcd60e51b8152600401610bed9061470b565b6124a882610bf6565b60038111156124b9576124b9613a12565b8154829060ff191660018360038111156124d5576124d5613a12565b0217905550805460019060ff1660038111156124f3576124f3613a12565b116125105760405162461bcd60e51b8152600401610bed90614736565b6002815460ff16600381111561252857612528613a12565b036124465760006020826001015481548110612546576125466142ef565b60009182526020909120600280850154600493840290920191825560038086015460018401559285015490820155600584015491015550805461ff00191661010017905550565b6110be600d828161394c565b6012546001600160a01b0316336001600160a01b0316146125cc5760405162461bcd60e51b8152600401610bed90614305565b60006125d7866131e0565b6125e0866131e0565b61260d602089815481106125f6576125f66142ef565b9060005260206000209060040201600001546131e0565b612616876131e0565b61264360208b8154811061262c5761262c6142ef565b9060005260206000209060040201600101546131e0565b604051602001612657959493929190614ac1565b60405160208183030381529060405290506000612673846131e0565b6126a060208981548110612689576126896142ef565b9060005260206000209060040201600201546131e0565b6126a9856131e0565b6126d660208b815481106126bf576126bf6142ef565b9060005260206000209060040201600301546131e0565b6040516020016126e99493929190614bf5565b60405160208183030381529060405290506000828260405160200161270f929190614cd6565b60408051601f19818403018152919052905060006127308260056007610d5f565b6000908152601f60205260409020600181019990995550505050600285019390935560038401919091556004830155600590910155565b606080606080606060008061277b8861343f565b919950925090506000886001600160401b0381111561279c5761279c613b4d565b6040519080825280602002602001820160405280156127c5578160200160208202803683370190505b5090506000896001600160401b038111156127e2576127e2613b4d565b60405190808252806020026020018201604052801561281557816020015b60608152602001906001900390816128005790505b50905060008a6001600160401b0381111561283257612832613b4d565b60405190808252806020026020018201604052801561285b578160200160208202803683370190505b50905060008b6001600160401b0381111561287857612878613b4d565b6040519080825280602002602001820160405280156128a1578160200160208202803683370190505b50905060008c6001600160401b038111156128be576128be613b4d565b6040519080825280602002602001820160405280156128e7578160200160208202803683370190505b509050865b868111612ae3576000818152601c60205260409020548651879083908110612916576129166142ef565b602002602001018181525050601c6000828152602001908152602001600020600101805461294390614248565b80601f016020809104026020016040519081016040528092919081815260200182805461296f90614248565b80156129bc5780601f10612991576101008083540402835291602001916129bc565b820191906000526020600020905b81548152906001019060200180831161299f57829003601f168201915b50505050508582815181106129d3576129d36142ef565b6020026020010181905250601c600082815260200190815260200160002060020154848281518110612a0757612a076142ef565b6020908102919091018101919091526000828152601c8252604090206003015481548110612a3757612a376142ef565b906000526020600020906004020160000154848281518110612a5b57612a5b6142ef565b6020026020010151612a6d91906148e7565b838281518110612a7f57612a7f6142ef565b6020908102919091018101919091526000828152601c909152604090206004015460ff166003811115612ab457612ab4613a12565b828281518110612ac657612ac66142ef565b602090810291909101015280612adb816144ce565b9150506128ec565b50939c929b5090995097509095509350505050565b6000818152601e60209081526040918290206005018054835181840281018401909452808452606093928301828280156116ad57602002820191906000526020600020908154815260200190600101908083116116995750505050509050919050565b6014546060906001600160a01b0316336001600160a01b031614612be75760405162461bcd60e51b815260206004820152603a60248201527f4f6e6c7920746865204c6f7264732063616e2063616c6c20746869732066756e60448201527f6374696f6e2120476f20617761792c20796f7520707269636b210000000000006064820152608401610bed565b6000858152601c60205260409020612bfe81612fc2565b6001600482015460ff166003811115612c1957612c19613a12565b14612c665760405162461bcd60e51b815260206004820152601f60248201527f5468652070726f706f73616c2068617320656e646564206d79206c6f726421006044820152606401610bed565b6000848152600a8201602052604090205460ff1615612cc75760405162461bcd60e51b815260206004820181905260248201527f4d79206c6f72642c20796f75206861766520616c726561647920766f746564216044820152606401610bed565b6000848152600a820160205260408120805460ff19166001179055670de0b6b3a764000084612d10600d600701546001600160a01b031660009081526020819052604090205490565b612d1a9190614a9f565b612d249190614a9f565b90508515612d4b5780826007016000828254612d4091906148e7565b90915550612d659050565b80826008016000828254612d5f91906148e7565b90915550505b600582018054906000612d77836144ce565b919050555080826006016000828254612d9091906148e7565b909155505060408051808201909152601b81527f566572792077697365206465636973696f6e206d79206c6f72642100000000006020820152979650505050505050565b600e546001600160a01b0316336001600160a01b03161480612e0957506018546001600160a01b0316336001600160a01b0316145b612e7b5760405162461bcd60e51b815260206004820152603f60248201527f4f6e6c792074686520436c616e20616e6420535449434b20746f6b656e20636f60448201527f6e7472616374732063616e2063616c6c20746869732066756e6374696f6e21006064820152608401610bed565b612e8582826134d3565b6014546110be906001600160a01b0316826134d3565b6000818152601d60205260409020600180820154148015612ec15750600281015460ff16155b612edd5760405162461bcd60e51b8152600401610bed9061470b565b612ee682610bf6565b6003811115612ef757612ef7613a12565b8154829060ff19166001836003811115612f1357612f13613a12565b02179055506001815460ff166003811115612f3057612f30613a12565b11612f4d5760405162461bcd60e51b8152600401610bed90614736565b6002815460ff166003811115612f6557612f65613a12565b0361157157600581015460038201546001600160a01b0390911690600d90818110612f9257612f926142ef565b0180546001600160a01b0319166001600160a01b0392909216919091179055600201805460ff1916600117905550565b6000600482015460ff166003811115612fdd57612fdd613a12565b036130505760405162461bcd60e51b815260206004820152603b60248201527f546869732070726f706f73616c20494420686173206e6f74206265656e20617360448201527f7369676e656420746f20616e792070726f706f73616c2062726f2100000000006064820152608401610bed565b6000808260070154118015613069575060008260080154115b156130a3578160080154826007015461308291906148e7565b6007830154613092906064614d05565b61309c9190614a9f565b90506130c2565b600082600701541180156130b957506008820154155b156130c2575060645b60005b6020548110156131db57808360030154036131c957602081815481106130ed576130ed6142ef565b906000526020600020906004020160000154836002015461310e91906148e7565b4211156131c95782600501546020828154811061312d5761312d6142ef565b9060005260206000209060040201600301541180613172575082600601546020828154811061315e5761315e6142ef565b906000526020600020906004020160020154115b806131a05750816020828154811061318c5761318c6142ef565b906000526020600020906004020160010154115b156131b95760048301805460ff191660031790556131c9565b60048301805460ff191660021790555b806131d3816144ce565b9150506130c5565b505050565b606060006131ed83613592565b60010190506000816001600160401b0381111561320c5761320c613b4d565b6040519080825280601f01601f191660200182016040528015613236576020820181803683370190505b5090508181016020015b600019016f181899199a1a9b1b9c1cb0b131b232b360811b600a86061a8153600a850494508461324057509392505050565b6060610cd06001600160a01b038316601461366a565b6060610cd08261329784613805565b60010161366a565b33600090815260068401602052604081205460ff16156133325760405162461bcd60e51b815260206004820152604260248201527f447564652120596f75206861766520616c726561647920636c61696d6564207960448201527f6f757220616c6c6f77616e6365212057687920746f6f20616767726573736976606482015261653f60f01b608482015260a401610bed565b6040516bffffffffffffffffffffffff193360601b166020820152600090819060340160405160208183030381529060405280519060200120905060005b6004870154811015613434576133d9868680806020026020016040519081016040528093929190818152602001838360200280828437600092019190915250505050600489018054849081106133c8576133c86142ef565b90600052602060002001548461386f565b15613422573360009081526006880160205260409020805460ff1916600117905560058701805482908110613410576134106142ef565b90600052602060002001549250613434565b8061342c816144ce565b915050613370565b509095945050505050565b60008060008060008086613452601a5490565b61345c9190614d1c565b1115613495578561346c601a5490565b6134769190614d1c565b9150600161348487846148e7565b61348e9190614d1c565b90506134c8565b6001915060016134a4601a5490565b6134ae9190614d1c565b955060016134bb601a5490565b6134c59190614d1c565b90505b949590949350915050565b6001600160a01b0382166135295760405162461bcd60e51b815260206004820152601f60248201527f45524332303a206d696e7420746f20746865207a65726f2061646472657373006044820152606401610bed565b806002600082825461353b91906148e7565b90915550506001600160a01b038216600081815260208181526040808320805486019055518481527fddf252ad1be2c89b69c2b068fc378daa952ba7f163c4a11628f55a4df523b3ef910160405180910390a35050565b60008072184f03e93ff9f4daa797ed6e38ed64bf6a1f0160401b83106135d15772184f03e93ff9f4daa797ed6e38ed64bf6a1f0160401b830492506040015b6d04ee2d6d415b85acef810000000083106135fd576d04ee2d6d415b85acef8100000000830492506020015b662386f26fc10000831061361b57662386f26fc10000830492506010015b6305f5e1008310613633576305f5e100830492506008015b612710831061364757612710830492506004015b60648310613659576064830492506002015b600a8310610cd05760010192915050565b60606000613679836002614d05565b6136849060026148e7565b6001600160401b0381111561369b5761369b613b4d565b6040519080825280601f01601f1916602001820160405280156136c5576020820181803683370190505b509050600360fc1b816000815181106136e0576136e06142ef565b60200101906001600160f81b031916908160001a905350600f60fb1b8160018151811061370f5761370f6142ef565b60200101906001600160f81b031916908160001a9053506000613733846002614d05565b61373e9060016148e7565b90505b60018111156137b6576f181899199a1a9b1b9c1cb0b131b232b360811b85600f1660108110613772576137726142ef565b1a60f81b828281518110613788576137886142ef565b60200101906001600160f81b031916908160001a90535060049490941c936137af81614d2f565b9050613741565b508315610c5e5760405162461bcd60e51b815260206004820181905260248201527f537472696e67733a20686578206c656e67746820696e73756666696369656e746044820152606401610bed565b600080608083901c1561381d5760809290921c916010015b604083901c156138325760409290921c916008015b602083901c156138475760209290921c916004015b601083901c1561385c5760109290921c916002015b600883901c15610cd05760010192915050565b60008261387c8584613885565b14949350505050565b600081815b84518110156138ca576138b6828683815181106138a9576138a96142ef565b60200260200101516138d2565b9150806138c2816144ce565b91505061388a565b509392505050565b60008183106138ee576000828152602084905260409020610c5e565b6000838152602083905260409020610c5e565b82805482825590600052602060002090810192821561393c579160200282015b8281111561393c578251825591602001919060010190613921565b50613948929150613994565b5090565b82600d810192821561393c579160200282015b8281111561393c57825182546001600160a01b0319166001600160a01b0390911617825560209092019160019091019061395f565b5b808211156139485760008155600101613995565b6000602082840312156139bb57600080fd5b5035919050565b60005b838110156139dd5781810151838201526020016139c5565b50506000910152565b600081518084526139fe8160208601602086016139c2565b601f01601f19169290920160200192915050565b634e487b7160e01b600052602160045260246000fd5b60048110613a4657634e487b7160e01b600052602160045260246000fd5b9052565b60006101208b8352806020840152613a648184018c6139e6565b915050886040830152876060830152613a806080830188613a28565b8560a08301528460c08301528360e0830152826101008301529a9950505050505050505050565b602081526000610c5e60208301846139e6565b80356001600160a01b0381168114613ad157600080fd5b919050565b60008060408385031215613ae957600080fd5b613af283613aba565b946020939093013593505050565b600060208284031215613b1257600080fd5b610c5e82613aba565b60008060008060808587031215613b3157600080fd5b5050823594602084013594506040840135936060013592509050565b634e487b7160e01b600052604160045260246000fd5b604051601f8201601f191681016001600160401b0381118282101715613b8b57613b8b613b4d565b604052919050565b60008060408385031215613ba657600080fd5b82356001600160401b0380821115613bbd57600080fd5b818501915085601f830112613bd157600080fd5b8135602082821115613be557613be5613b4d565b613bf7601f8301601f19168201613b63565b92508183528781838601011115613c0d57600080fd5b8181850182850137600091830181019190915290969401359450505050565b600080600060608486031215613c4157600080fd5b613c4a84613aba565b9250613c5860208501613aba565b9150604084013590509250925092565b600082601f830112613c7957600080fd5b813560206001600160401b03821115613c9457613c94613b4d565b8160051b613ca3828201613b63565b9283528481018201928281019087851115613cbd57600080fd5b83870192505b84831015613cdc57823582529183019190830190613cc3565b979650505050505050565b600080600060608486031215613cfc57600080fd5b83356001600160401b0380821115613d1357600080fd5b613d1f87838801613c68565b94506020860135915080821115613d3557600080fd5b50613d4286828701613c68565b925050604084013590509250925092565b60008060008060808587031215613d6957600080fd5b613d7285613aba565b935060208501356001600160401b0380821115613d8e57600080fd5b613d9a88838901613c68565b94506040870135915080821115613db057600080fd5b50613dbd87828801613c68565b949793965093946060013593505050565b6020808252825182820181905260009190848201906040850190845b81811015613e0657835183529284019291840191600101613dea565b50909695505050505050565b60a08101613e208288613a28565b602082019590955260408101939093526001600160a01b03919091166060830152608090910152919050565b600080600060408486031215613e6157600080fd5b8335925060208401356001600160401b0380821115613e7f57600080fd5b818601915086601f830112613e9357600080fd5b813581811115613ea257600080fd5b8760208260051b8501011115613eb757600080fd5b6020830194508093505050509250925092565b60008060408385031215613edd57600080fd5b50508035926020909101359150565b6101008101613efb828b613a28565b60208201989098529515156040870152606086019490945260808501929092526001600160a01b031660a084015260c0830152151560e090910152919050565b6101008101613f4a828b613a28565b971515602082015295151560408701526060860194909452608085019290925260a084015260c083015260e090910152919050565b60008060408385031215613f9257600080fd5b82359150613fa260208401613aba565b90509250929050565b600081518084526020808501945080840160005b83811015613fdb57815187529582019590820190600101613fbf565b509495945050505050565b606081526000613ff96060830186613fab565b828103602084015261400b8186613fab565b9050828103604084015261401f8185613fab565b9695505050505050565b801515811461403757600080fd5b50565b6000806040838503121561404d57600080fd5b82359150602083013561405f81614029565b809150509250929050565b6000806040838503121561407d57600080fd5b61408683613aba565b9150613fa260208401613aba565b60006101a08083850312156140a857600080fd5b83601f8401126140b757600080fd5b6040518181018181106001600160401b03821117156140d8576140d8613b4d565b6040529083019080858311156140ed57600080fd5b845b838110156134345761410081613aba565b8252602091820191016140ef565b600080600080600060a0868803121561412657600080fd5b505083359560208501359550604085013594606081013594506080013592509050565b60a08152600061415c60a0830188613fab565b6020838203818501528188518084528284019150828160051b850101838b0160005b838110156141ac57601f1987840301855261419a8383516139e6565b9486019492509085019060010161417e565b505086810360408801526141c0818b613fab565b94505050505082810360608401526141d88186613fab565b905082810360808401526141ec8185613fab565b98975050505050505050565b602081526000610c5e6020830184613fab565b6000806000806080858703121561422157600080fd5b84359350602085013561423381614029565b93969395505050506040820135916060013590565b600181811c9082168061425c57607f821691505b60208210810361427c57634e487b7160e01b600052602260045260246000fd5b50919050565b60208082526034908201527f50726f706f73616c206973207374696c6c20676f696e67206f6e206f72206e6f60408201527374206576656e207374617274656420647564652160601b606082015260800190565b6000602082840312156142e857600080fd5b5051919050565b634e487b7160e01b600052603260045260246000fd5b60208082526026908201527f4f6e6c79206578656375746f72732063616e2063616c6c20746869732066756e6040820152656374696f6e2160d01b606082015260800190565b6000815161435d8185602086016139c2565b9290920192915050565b7f416464696e672061206e65772070726f706f73616c207479706520776974682081527503337b63637bbb4b733903830b930b6b2ba32b9399d160551b60208201526902632b733ba341037b3160b51b6036820152600085516143d1816040850160208a016139c2565b808301905061017160f51b8060408301527f526571756972656420417070726f76616c2052617465206f66200000000000006042830152865161441b81605c850160208b016139c2565b605c9201918201527f526571756972656420546f6b656e20416d6f756e74206f662000000000000000605e820152845161445c8160778401602089016139c2565b6141ec6144ab6144a561447c60778587010161017160f51b815260020190565b7f5265717569726564205061727469636970616e7420416d6f756e74206f6620008152601f0190565b8761434b565b601760f91b815260010190565b634e487b7160e01b600052601160045260246000fd5b6000600182016144e0576144e06144b8565b5060010190565b601f8211156131db57600081815260208120601f850160051c8101602086101561450e5750805b601f850160051c820191505b8181101561452d5782815560010161451a565b505050505050565b81516001600160401b0381111561454e5761454e613b4d565b6145628161455c8454614248565b846144e7565b602080601f831160018114614597576000841561457f5750858301515b600019600386901b1c1916600185901b17855561452d565b600085815260208120601f198616915b828110156145c6578886015182559484019460019091019084016145a7565b50858210156145e45787850151600019600388901b60f8161c191681555b5050505050600190811b01905550565b60208082526033908201527f44414f20686173206e6f7420656e6f7567682062616c616e636520746f207370604082015272656e6421205361642c2069736e27742069743f60681b606082015260800190565b6b029b832b73234b7339037b3160a51b81526000825161466e81600c8501602087016139c2565b6520636f696e7360d01b600c939091019283015250601201919050565b68029b832b73234b733960bd1b8152600083516146af8160098501602088016139c2565b700103a37b5b2b73990333937b6903a34329607d1b60099184019182015283516146e081601a8401602088016139c2565b711031b7b73a3930b1ba1030b2323932b9b99760711b601a9290910191820152602c01949350505050565b60208082526011908201527015dc9bdb99c81c1c9bdc1bdcd85b081251607a1b604082015260600190565b60208082526030908201527f5468652070726f706f73616c207374696c6c20676f696e67206f6e206f72206e60408201526f6f74206576656e20737461727465642160801b606082015260800190565b7f496e20537469636b2044414f20636f6e74726163742c207570646174696e672081527f4d696e696d756d2042616c616e636520546f2050726f706f736520746f2000006020820152600083516147e481603e8501602088016139c2565b65010333937b6960d51b603e91840191820152835161480a8160448401602088016139c2565b601760f91b60449290910191820152604501949350505050565b60208082526054908201527f546869732070726f706f73616c206469646e27742070617373206f72206e6f7460408201527f2066696e616c697a65642062726f2120436865636b20796f7572206d6f6e65746060820152736172792070726f706f73616c206e756d6265722160601b608082015260a00190565b60208082526029908201527f596f7520646f6e2774206861766520616e7920616c6c6f77616e63652c20736f60408201526872727920647564652160b81b606082015260800190565b80820180821115610cd057610cd06144b8565b60006020828403121561490c57600080fd5b8151610c5e81614029565b7f496e20537469636b2044414f20636f6e74726163742c205570646174696e672081527f70726f706f73616c207479706520696e6465786573206f6620696e646578200060208201526000845161497581603f8501602089016139c2565b630103a37960e51b603f9184019182015284516149998160438401602089016139c2565b65010333937b6960d51b6043929091019182015283516149c08160498401602088016139c2565b601760f91b60499290910191820152604a0195945050505050565b7f496e20537469636b2044414f20636f6e74726163742c207570646174696e672081527f636f6e74726163742061646472657373206f6620696e64657820000000000000602082015260008451614a3981603a8501602089016139c2565b630103a37960e51b603a918401918201528451614a5d81603e8401602089016139c2565b65010333937b6960d51b603e92909101918201528351614a848160448401602088016139c2565b601760f91b6044929091019182015260450195945050505050565b600082614abc57634e487b7160e01b600052601260045260246000fd5b500490565b7f5570646174696e672070726f706f73616c2074797065206e756d626572200000815260008651614af981601e850160208b016139c2565b7f207769746820666f6c6c6f77696e6720706172616d65746572733a2000000000601e918401918201526902632b733ba34103a37960b51b603a8201528651614b49816044840160208b016139c2565b65010333937b6960d51b604492909101918201528551614b7081604a840160208a016139c2565b61017160f51b604a92909101918201527f526571756972656420417070726f76616c205261746520746f20000000000000604c8201528451614bb98160668401602089016139c2565b614be8614bda6144a560668486010165010333937b6960d51b815260060190565b61017160f51b815260020190565b9998505050505050505050565b7f526571756972656420546f6b656e20416d6f756e7420746f2000000000000000815260008551614c2d816019850160208a016139c2565b808301905065010333937b6960d51b8060198301528651614c5581601f850160208b016139c2565b80830192505061017160f51b80601f8401527f5265717569726564205061727469636970616e7420416d6f756e7420746f200060218401528651614ca0816040860160208b016139c2565b6040930192830191909152845190614cbf8260468501602089016139c2565b604692909101918201526048019695505050505050565b60008351614ce88184602088016139c2565b835190830190614cfc8183602088016139c2565b01949350505050565b8082028115828204841417610cd057610cd06144b8565b81810381811115610cd057610cd06144b8565b600081614d3e57614d3e6144b8565b50600019019056fea2646970667358221220c60f5afd54104140e6dd5cec717ff570a51864bbc0b460e17b7dd7c0a471e08a64736f6c63430008130033",
    "sourcePath": "c:/Black Dot/Github Repo/FO-WeFukc/Contracts/contracts/StickDAO.sol",
    "compiler": {
        "name": "solc",
        "version": "0.8.19+commit.7dd6d404"
    },
    "functionHashes": {
        "DEBUG_setContract(address,uint256)": "6a6d75ca",
        "DEBUG_setContracts(address[13])": "dd83e217",
        "allowance(address,address)": "dd62ed3e",
        "approve(address,uint256)": "095ea7b3",
        "balanceOf(address)": "70a08231",
        "claimCoinSpending(uint256,bytes32[])": "93d32b40",
        "claimTokenSpending(uint256,bytes32[])": "8a037bb2",
        "contracts(uint256)": "474da79a",
        "decimals()": "313ce567",
        "decreaseAllowance(address,uint256)": "a457c2d7",
        "executeContractAddressUpdateProposal(uint256)": "f9b29c12",
        "executeFunctionsProposalTypesUpdateProposal(uint256)": "466cfc66",
        "executeMinBalanceToPropUpdateProposal(uint256)": "763b6d4c",
        "executeNewProposalTypeProposal(uint256)": "d1088a76",
        "executeProposalTypeUpdateProposal(uint256)": "d85f181f",
        "finalizeSpendingProposal()": "245da66b",
        "functionsProposalTypes(uint256)": "50296e02",
        "getContractCoinBalance()": "5b00d95d",
        "getContractTokenBalance(address)": "14205e28",
        "getMinBalanceToPropose()": "31d9984e",
        "increaseAllowance(address,uint256)": "39509351",
        "isProposalPassed(uint256)": "6cd4f6da",
        "lordVote(uint256,bool,uint256,uint256)": "efd2aeeb",
        "minBalanceToPropose()": "ff2c50a0",
        "mintTokens(address,uint256)": "f0dda65c",
        "name()": "06fdde03",
        "newProposal(string,uint256)": "1dd28c55",
        "proposalCounter()": "0c0512e9",
        "proposalResult(uint256)": "1022b30b",
        "proposalTrackers(uint256)": "ae30a302",
        "proposalTypeUpdates(uint256)": "b452df95",
        "proposalTypes(uint256)": "a6fb56ac",
        "proposals(uint256)": "013cf08b",
        "proposeContractAddressUpdate(uint256,address)": "bf3c6bbe",
        "proposeFunctionsProposalTypesUpdate(uint256,uint256)": "a3419d04",
        "proposeMinBalanceToPropUpdate(uint256)": "4bf8a5d0",
        "proposeNewCoinSpending(bytes32[],uint256[],uint256)": "29769dfa",
        "proposeNewProposalType(uint256,uint256,uint256,uint256)": "19f8edf2",
        "proposeNewTokenSpending(address,bytes32[],uint256[],uint256)": "2c5950f9",
        "proposeProposalTypeUpdate(uint256,uint256,uint256,uint256,uint256)": "e69a0504",
        "returnAllowances(uint256)": "ed6a48f3",
        "returnMerkleRoots(uint256)": "61e23641",
        "spendingProposalCounter()": "07b12f5a",
        "spendingProposals(uint256)": "7506a78f",
        "symbol()": "95d89b41",
        "totalSupply()": "18160ddd",
        "transfer(address,uint256)": "a9059cbb",
        "transferFrom(address,address,uint256)": "23b872dd",
        "viewLastProposalsBasics(uint256)": "ecae2b35",
        "viewLastProposalsNumbers(uint256)": "c2813bc0",
        "vote(uint256,bool)": "c9d27afe"
    },
    "gasEstimates": {
        "creation": {
            "codeDepositCost": "3967200",
            "executionCost": "infinite",
            "totalCost": "infinite"
        },
        "external": {
            "": "252",
            "DEBUG_setContract(address,uint256)": "24739",
            "DEBUG_setContracts(address[13])": "infinite",
            "allowance(address,address)": "infinite",
            "approve(address,uint256)": "563",
            "balanceOf(address)": "2586",
            "claimCoinSpending(uint256,bytes32[])": "infinite",
            "claimTokenSpending(uint256,bytes32[])": "infinite",
            "contracts(uint256)": "2525",
            "decimals()": "267",
            "decreaseAllowance(address,uint256)": "540",
            "executeContractAddressUpdateProposal(uint256)": "infinite",
            "executeFunctionsProposalTypesUpdateProposal(uint256)": "infinite",
            "executeMinBalanceToPropUpdateProposal(uint256)": "infinite",
            "executeNewProposalTypeProposal(uint256)": "infinite",
            "executeProposalTypeUpdateProposal(uint256)": "infinite",
            "finalizeSpendingProposal()": "infinite",
            "functionsProposalTypes(uint256)": "2530",
            "getContractCoinBalance()": "261",
            "getContractTokenBalance(address)": "infinite",
            "getMinBalanceToPropose()": "2404",
            "increaseAllowance(address,uint256)": "584",
            "isProposalPassed(uint256)": "infinite",
            "lordVote(uint256,bool,uint256,uint256)": "infinite",
            "minBalanceToPropose()": "2427",
            "mintTokens(address,uint256)": "infinite",
            "name()": "infinite",
            "newProposal(string,uint256)": "infinite",
            "proposalCounter()": "2433",
            "proposalResult(uint256)": "infinite",
            "proposalTrackers(uint256)": "17639",
            "proposalTypeUpdates(uint256)": "13411",
            "proposalTypes(uint256)": "11100",
            "proposals(uint256)": "infinite",
            "proposeContractAddressUpdate(uint256,address)": "infinite",
            "proposeFunctionsProposalTypesUpdate(uint256,uint256)": "infinite",
            "proposeMinBalanceToPropUpdate(uint256)": "infinite",
            "proposeNewCoinSpending(bytes32[],uint256[],uint256)": "infinite",
            "proposeNewProposalType(uint256,uint256,uint256,uint256)": "infinite",
            "proposeNewTokenSpending(address,bytes32[],uint256[],uint256)": "infinite",
            "proposeProposalTypeUpdate(uint256,uint256,uint256,uint256,uint256)": "infinite",
            "returnAllowances(uint256)": "infinite",
            "returnMerkleRoots(uint256)": "infinite",
            "spendingProposalCounter()": "2389",
            "spendingProposals(uint256)": "11195",
            "symbol()": "infinite",
            "totalSupply()": "2360",
            "transfer(address,uint256)": "517",
            "transferFrom(address,address,uint256)": "infinite",
            "viewLastProposalsBasics(uint256)": "infinite",
            "viewLastProposalsNumbers(uint256)": "infinite",
            "vote(uint256,bool)": "infinite"
        },
        "internal": {
            "calculatePropVariables(uint256)": "infinite",
            "initializeProposalTypes()": "infinite",
            "merkleCheck(struct StickDAO.SpendingProposal storage pointer,bytes32[] calldata)": "infinite",
            "updateProposalStatus(struct StickDAO.Proposal storage pointer)": "infinite"
        }
    }
}